:020000040800F2
:1000000000040020B10100089103000891030008DA
:100010009103000891030008910300089103000870
:10002000910300089103000891030008B103000840
:10003000910300089103000891030008910400084F
:100040009103000891030008910300089103000840
:100050009103000891030008910300089103000830
:100060009103000891030008910300085110000853
:1000700081100008B1100008E110000811110008FB
:100080004111000871110008711600089103000861
:1000900091030008910300089103000891030008F0
:1000A00091030008910300089103000891030008E0
:1000B0009103000891030008F1190008910300085A
:1000C00091030008910300089103000891030008C0
:1000D0009103000891030008C11A00089103000869
:1000E00091030008910300089103000891030008A0
:1000F000910300089103000891030008A111000872
:10010000910300089103000891030008910300087F
:10011000910300089103000891030008910300086F
:10012000D111000801120008311200086112000804
:100130009112000891030008910300089103000840
:10014000910300089103000891030008910300083F
:10015000C1120008F11200082113000891030008E1
:10016000910300089103000891030008910300081F
:10017000910300089103000891030008910300080F
:0801800091030008910300083F
:10019000704700BFAFF30080AFF30080AFF3008083
:1001A000FEE700BFAFF30080AFF30080AFF3008045
:1001B00072B640F60001C2F2000181F30988022301
:1001C00083F31488BFF36F8F40F2000240F20044C3
:1001D000C2F20002C2F20004A24217D213464FF04C
:1001E000553043F8040BD643A519A342C5F3800547
:1001F0000CD225B1186002F10803A34206D21A46B8
:1002000042F8040B5860131DA342F8D340F2004299
:10021000C2F200028A4217D213464FF0553043F81B
:10022000040BD5434C198B42C4F380040CD224B187
:10023000186002F108038B4206D21E4646F8040BF2
:100240005860331D8B42F8D301F0DAFC41F6740498
:1002500040F60001C2F20001C2F20004A14225D220
:1002600042F69050C0F6000002460B4652F8046B6E
:1002700043F8046BCD4304EB050CA342CCF380059B
:1002800014D23DB116681E6001F10803A34200F1CB
:1002900008020BD21146184651F8045B40F8045B83
:1002A00052685A60031D0A1DA342F3D341F6780237
:1002B00041F68430C2F20002C2F20000824217D23C
:1002C0001346002143F8041BD44300EB040E834281
:1002D000CEF380040CD224B1196002F108038342EA
:1002E00006D21E4646F8041B5960331D8342F8D3DC
:1002F00040F2881540F28816C0F60005C0F60006E8
:10030000FFF746FFB54219D22C46E94354F8043BA7
:1003100077189847B442C7F380070FD22FB12368EC
:1003200005F108049847B44208D2254655F8042B35
:10033000904760682C1D8047B442F6D340F2881580
:1003400040F28816C0F60005C0F6000602F0A0F9DB
:10035000B5421AD22C46EF4354F8043B06EB070C87
:10036000CCF380079847B4420FD22FB1226805F131
:1003700008049047B44208D2254655F8040B80473C
:1003800061682C1D8847B442F6D3FFF709BF00BF50
:10039000FEE700BFAFF30080AFF30080AFF3008053
:1003A00000F0B6FA00DF00BFAFF30080AFF30080CB
:1003B000EFF30983203383F30988002383F3118843
:1003C000704700BFAFF30080AFF30080AFF3008051
:1003D0004FF46D43CEF200034FF44072C0F2FA5274
:1003E000002110B5072099601021DA6000F098F81C
:1003F0000A20202100F094F80B208021BDE8104055
:1004000000F08EB8AFF30080AFF30080AFF3008050
:10041000202383F311884FF46D40CEF2000043682F
:1004200013F400631CD0EFF30982203A82F30988A9
:1004300041F69013C2F200034FF080709969D061C9
:10044000C87F80B118688B688168994294BF002387
:1004500001238BB140F2A133C0F6000393617047D2
:1004600083F31188704718688B688168994234BF9C
:1004700000230123002BEDD140F2A431C0F600018E
:1004800091617047AFF30080AFF30080AFF300805D
:1004900010B5202383F3118800F0A2F8002383F322
:1004A0001188BDE81040FFF7B3BF00BFAFF3008075
:1004B0002DE9F04FC1F80CD0D0F80CD0BDE8F08F8A
:1004C000002383F311882846A04700F0F1FA704713
:1004D000F0B44FF461438408CEF20003C03400F05E
:1004E000030253F82470D500FF264209AE4027EAE4
:1004F000060611FA05F500F01F0002F16007012160
:1005000011FA00F02E4343F8246043F8270043F823
:100510002200F0BC704700BFAFF30080AFF3008053
:1005200030B44FF46D438508CEF20003AA1D00F0ED
:10053000030053F82250C000FF24844025EA04043D
:1005400011FA00F0044343F8224030BC704700BF6A
:1005500041F69010C2F2000042F640338269C0F6C4
:1005600000039361FEE700BFAFF30080AFF30080AC
:1005700030B583B0FFF72CFF00F0E2F800F060F830
:1005800000F036FC00F06CFC41F678004021C2F22D
:10059000000000F0CDF941F69014C2F200040122EF
:1005A000A0610277002383F3118862B642F65031CE
:1005B000A569C0F600011C4641F6C00040F2515347
:1005C000A961C0F60003C021C2F20000009400F04F
:1005D00007FA03B030BD00BFAFF30080AFF3008077
:1005E00070B541F69013C2F200039B69DA7F0AB13D
:1005F000013ADA771A6A41F68014C2F20004511CFB
:100600001962E3682168581CA142E06015D08D682A
:10061000013D8D608DB926460B68CA685E60236017
:10062000CD602B4683F3118808699047202383F31C
:100630001188216888680028EED070BDAFF3008073
:1006400041F68013C2F200034FF0FF3000225B60DE
:100650001B609860DA607047AFF30080AFF30080F2
:1006600030B441F68014C2F2000403612568C26010
:10067000AB68994204D92D68C91AAB688B42FAD38A
:100680006B688160A54243600560186018BFAB6865
:1006900068601CBFC1EB0301A96030BC704700BF9C
:1006A000036841F68012C2F2000293421FBF9968AC
:1006B00082688A189A6042681360016800234A6061
:1006C000C3607047AFF30080AFF30080AFF30080EA
:1006D000202383F31188037F0D2B11D8DFE803F06B
:1006E00027101007100B101010101010100B416A7B
:1006F0008B685A1C8A60416803680B60026851600D
:100700004FF0FF3241F69013426281680022027777
:10071000C2F200031B689A689142FBD959680360D2
:10072000416008605860002383F3118870470023FC
:1007300083F31188704700BFAFF30080AFF30080F0
:1007400041F69013C2F2000300225B601B609A60C6
:100750005B611B61704700BFAFF30080AFF30080A7
:1007600041F69013002281680277C2F200031B68F1
:100770009A688A42FBD259680360416008605860F9
:10078000704700BFAFF30080AFF30080AFF300808D
:1007900041F69013C2F2000310B49969142408774B
:1007A000CC771A68012014681077104663601C60CB
:1007B0009A6110BCFFF77CBEAFF30080AFF30080FE
:1007C00030B5B1F1FF3F87B0054617D041F6901420
:1007D000C2F2000440F2D162A369C0F6000201A88F
:1007E000FFF73EFF2846FFF7D3FF049B13B101A894
:1007F000FFF756FFA069406A07B030BD41F690147C
:10080000FFF7C6FFC2F20004F4E700BFAFF30080B9
:1008100041F69012C2F2000230B494698568034632
:10082000A068596285420CD8002119771268906837
:100830008542FBD951681A6059600B60536030BC27
:10084000704700252577114609688D68A842FBD9B5
:10085000486821606060046001204C601877214680
:100860001846936130BCFFF723BE00BFAFF3008092
:1008700041F6901CC2F2000C70B4DCF80000DCF809
:10088000181005688C68C5F804C014220126CA77C0
:10089000002206776346CCF80050CCF818000A779F
:1008A0001B689A68A242FBD25A680B604A601160CA
:1008B000596070BCFFF7FCBDAFF30080AFF3008060
:1008C00041F6901CC2F2000C70B4DCF80000DCF8B9
:1008D000181005688C68C5F804C001260022067748
:1008E0006346CCF80050CCF818000A771B689A6869
:1008F0009442FBD35A680B604A601160596070BC27
:10090000FFF7D6BDAFF30080AFF30080AFF30080F8
:1009100041F69011C2F200018869C37F0BB1FFF765
:10092000CFBFFFF7A5BF00BFAFF30080AFF30080DC
:10093000F0B441F690140022C2F2000402271426FB
:1009400001250777C677427785776569016400F1ED
:100950002C0600F12807046181604561C263606173
:10096000826302628261286187620663C662F0BCAC
:10097000704700BFAFF30080AFF30080AFF300809B
:10098000A1F1240CF0B400EB0C07C76040F2C141A8
:1009900040F80C30049BC0F6000141F690167B60D5
:1009A00039620025C2F20006022314210127C17713
:1009B0008777037745777369026400F12C0100F1B2
:1009C000280706618260436104467061C5638563E0
:1009D00005628561186187620163C162F0BC70477E
:1009E00010B59C4682B0202383F31188049C634693
:1009F0000094FFF7C5FF00210446FFF709FF00231D
:100A000083F31188204602B010BD00BFAFF3008011
:100A100008B50146202383F311880620FFF7D0FE96
:100A2000002383F3118808BDAFF30080AFF300808B
:100A300008B5202383F3118841F6901CC2F2000C04
:100A4000DCF80010DCF818008A6883689A4201D349
:100A5000FFF70EFF002383F3118808BDAFF300807A
:100A600041F69013C2F2000370B59C69254660629E
:100A700055F8280FA84206D00168A162FFF770FE62
:100A8000A06AA842F8D1607F10F0030F01BF22696D
:100A900060690261226908BF50610E20BDE87040A4
:100AA000FFF776BEAFF30080AFF30080AFF30080B6
:100AB000202383F31188FFF7D3BF00BFAFF300807B
:100AC0000023406000608360704700BFAFF3008088
:100AD00008B5826B037F41EA0202082B82630CD0C7
:100AE000092B00D008BD436A02EA03018B42F9D109
:100AF000FFF736FE0022426208BD436A1A42F7D170
:100B000008BD00BFAFF30080AFF30080AFF30080FB
:100B100070B50468844205460E460AD0E2686068F3
:100B2000A16842EA0603E360FFF7D2FF2468AC4203
:100B3000F4D170BDAFF30080AFF30080AFF300805D
:100B400010B4034619B94FF0FF3010BC704741F69E
:100B50009014C2F200040D20A26953625C68136015
:100B600054605A60226010BCFFF72ABEAFF30080C9
:100B700010B4C361019B40608A1800240060846047
:100B800041618161C1600261036210BC704700BFB6
:100B9000426908B503468069824218BF986817D039
:100BA0000130986002F8011B18695A61824201D332
:100BB000DA685A611868984208D0016819604B6079
:100BC000FFF7CEFD00234362184608BD002008BD94
:100BD00098680028E4D06FF0030008BDAFF30080F0
:100BE00070B5202304460D4683F31188C36903B111
:100BF0009847A6684EB920462946FFF7A1FF00286E
:100C0000F7DA334683F3118870BDA3692269013E88
:100C1000A66013F8010B9342A36124BFE368A361AC
:100C2000002383F3118870BDAFF30080AFF3008021
:100C30002DE9F0471D4604460E469146D0F81C802B
:100C4000202383F311880027B8F1000F01D020463C
:100C5000C047D4F808A0BAF1000F0BD120462946AE
:100C6000FFF76EFF0028F4D0534683F3118838460F
:100C7000BDE8F087A3690AF1FF31A16013F8010B09
:100C8000F0552269A361934224BFE368A361002366
:100C900083F311880137B945E9D0202383F3118804
:100CA000D2E700BFAFF30080AFF30080AFF3008066
:100CB00010B4C361019B40608C1800608260416188
:100CC0008161C1600461036210BC7047AFF30080B2
:100CD000F8B504460D461646202383F31188A7680D
:100CE0004FB920463146FFF72BFF0028F7DA3B4685
:100CF00083F31188F8BD6369013FA76003F8015BC6
:100D000022696361934224BFE3686361E3690BB1C5
:100D100020469847002383F311881846F8BD00BF8A
:100D200041698269914210B5034618BF816815D0A8
:100D30004C1C9C6012F8014B18699A61824201D3E5
:100D4000DA689A611868984206D0016819604B60A9
:100D5000FFF706FD00234362204610BD816800298D
:100D6000E6D06FF0020010BDAFF30080AFF300805B
:100D70002DE9F0471E4604460D461746D0F81C9054
:100D8000202383F311884FF00008D4F808A0BAF1AB
:100D9000000F21D00AF1FF31A1606369287803F8C0
:100DA000010B22696361934224BFE3686361B9F177
:100DB000000F01D02046C847002383F31188013F6C
:100DC00008F1010811D00135202383F31188D4F8EC
:100DD00008A0BAF1000FDDD120463146FFF7B0FE82
:100DE0000028D2D0534683F311884046BDE8F087EF
:100DF000094941F6B01241F6AC134CF2000CC2F2B4
:100E00000002C2F20003C2F2010C21F007002CF034
:100E100007011060196070478B1B0020AFF3008042
:100E2000202383F3118841F6B01341F6AC1CC2F2C3
:100E30000003C2F2000C1968DCF80020073020F033
:100E40000700521A90429DBF0818186008460020FB
:100E5000002383F311887047AFF30080AFF3008065
:100E600041F6B813C2F2000340F621620021C0F639
:100E7000000203F110001A609960D960FFF720BEEC
:100E800010B500F0CDFA42F65040C0F6000000F078
:100E90002FFC00F00DF800F02BF800F079F800F0CE
:100EA000C7F8BDE8104000F0B3BE00BFAFF300804C
:100EB00000F0A6BBAFF30080AFF30080AFF300807B
:100EC00000230122027043608360C36003614361B9
:100ED0001830FFF7F5BD00BFAFF30080AFF300801F
:100EE00083680A4641680068994000F0F9BC00BF79
:100EF00000F0C6BDAFF30080AFF30080AFF3008019
:100F00000121002301704360704700BFAFF30080F0
:100F10000C30FFF78DBE00BFAFF30080AFF3008051
:100F20000C304FF0FF33FFF783BE00BFAFF30080FC
:100F30003030FFF71DBF00BFAFF30080AFF300807C
:100F400030304FF0FF33FFF713BF00BFAFF3008027
:100F50000C30FFF745BE00BFAFF30080AFF3008059
:100F60000C304FF0FF31FFF73BBE00BFAFF3008006
:100F70003030FFF7ADBE00BFAFF30080AFF30080AD
:100F800030304FF0FF32FFF7A3BE00BFAFF3008059
:100F900000F01EBEAFF30080AFF30080AFF300801F
:100FA00070B542F670330646C0F60003044646F8B4
:100FB000043B82B0666001260B46154604F15401DD
:100FC000102226720C300094FFF7D2FD04F130009D
:100FD00004F1640110222B460094FFF769FE02B071
:100FE00070BD00BFAFF30080AFF30080AFF30080AF
:100FF000436970B504460D463BB104F10C00294627
:10100000FFF7C6FD00280BDB70BD04300421FFF79D
:101010007FFD04F10C002946FFF7BAFD0028F3DA42
:10102000201D8021BDE87040FFF772BDAFF3008046
:1010300000F0B6BCAFF30080AFF30080AFF30080E8
:10104000002301220270436083600C30FFF738BD3B
:1010500010B54FF4C040C4F2020041F6D812C2F2FB
:1010600000020168136801F03D0181600BB1506816
:101070009847BDE81040FFF7CBB900BFAFF3008041
:1010800010B54FF4C040C4F2020041F6D812036814
:10109000C2F20002990901F03D0193688C0184605D
:1010A0000BB1D0689847BDE81040FFF7B1B900BF59
:1010B00010B54FF4C040C4F2020041F6D8120368E4
:1010C000C2F20002190C01F03D0113690C048460A6
:1010D0000BB150699847BDE81040FFF799B900BFC0
:1010E00010B54FF4C040C4F2020041F6D8120368B4
:1010F000C2F20002990D01F03D0193698C058460F4
:101100000BB1D0699847BDE81040FFF781B900BF27
:1011100010B54FF4C040C4F2020041F6D812C2F23A
:1011200000024168136A01F03D01C1600BB1506AD1
:101130009847BDE81040FFF76BB900BFAFF30080E0
:1011400010B54FF4C040C4F2020041F6D812436813
:10115000C2F20002990901F03D01936A8C01C4605A
:101160000BB1D06A9847BDE81040FFF751B900BFF6
:1011700010B54FF4C040C4F2020041F6D8124368E3
:10118000C2F20002190C01F03D01136B0C04C460A3
:101190000BB1506B9847BDE81040FFF739B900BF5D
:1011A00010B54FF4C040C4F2020041F6D8124368B3
:1011B000C2F20002990D01F03D01936B8C05C460F1
:1011C0000BB1D06B9847BDE81040FFF721B900BFC5
:1011D00010B54FF4C840C4F2020041F6D812C2F272
:1011E00000020168136C01F03D0181600BB1506C8D
:1011F0009847BDE81040FFF70BB900BFAFF3008080
:1012000010B54FF4C840C4F2020041F6D81203688A
:10121000C2F20002990901F03D01936C8C018460D7
:101220000BB1D06C9847BDE81040FFF7F1B800BF94
:1012300010B54FF4C840C4F2020041F6D81203685A
:10124000C2F20002190C01F03D01136D0C04846020
:101250000BB1506D9847BDE81040FFF7D9B800BFFB
:1012600010B54FF4C840C4F2020041F6D81203682A
:10127000C2F20002990D01F03D01936D8C0584606E
:101280000BB1D06D9847BDE81040FFF7C1B800BF63
:1012900010B54FF4C840C4F2020041F6D812C2F2B1
:1012A00000024168136E01F03D01C1600BB1506E48
:1012B0009847BDE81040FFF7ABB800BFAFF3008020
:1012C00010B54FF4C840C4F2020041F6D81243688A
:1012D000C2F20002990901F03D01936E8C01C460D5
:1012E0000BB1D06E9847BDE81040FFF791B800BF32
:1012F00010B54FF4C840C4F2020041F6D81243685A
:10130000C2F20002190C01F03D01136F0C04C4601D
:101310000BB1506F9847BDE81040FFF779B800BF98
:1013200010B54FF4C840C4F2020041F6D812436829
:10133000C2F20002990D01F03D01936F8C05C4606B
:101340000BB1D06F9847BDE81040FFF761B800BF00
:101350002DE9F00F42F6903141F65825C0F6000114
:10136000C2F200050023D1F81880D1F824C00F6B19
:10137000CE6BD1F800A0D1F80C90D1F848B02B601A
:101380004D6DCAF8003041F6D812C2F20002C9F819
:101390000030C8F80030CCF800303B6033600F6E8E
:1013A000CBF80030CE6E2B608D6F3B604FF4C044A5
:1013B0004FF4C840C4F20204C4F202003360136068
:1013C0009360136193611362936213639363136475
:1013D00093642B60D1F88480D1F890C0D1F89C70D0
:1013E000D1F8A860D1F8B450C8F800304FF0FF3100
:1013F000CCF8003013653B609365336013669366E9
:1014000013672B609367A160E1608160C160BDE8F4
:10141000F00F7047AFF30080AFF30080AFF30080B0
:1014200070B44FF4605CC4F2020C00224FF0FF3441
:10143000DCF81010CCF81040CCF81020DCF81410B8
:10144000CCF81440CCF81420DCF820504EF21001F7
:10145000CEF2000165F080564EF6F05049F23F059D
:10146000CCF82060CEF20000CCF820200723C0F298
:101470000205DCF82460CCF82440CCF824204D6030
:101480008A600B60C4684FF48051CEF2000144F0D2
:101490008074C4600B6843F001000860DCF84030E1
:1014A0004FF4E041C4F2000143F08050CCF840001A
:1014B0000B6843F480700860DCF8703003F440710E
:1014C000B1F5007F4FF4E043C4F200031EBF4FF4B8
:1014D0008031CCF87010CCF87020586820F400727D
:1014E0005A6070BCFFF734BFAFF30080AFF30080E9
:1014F0004FF460514FF4E04CC4F20201C4F2000C0E
:101500004FF080534FF440420B64CCF80020086841
:1015100040F001030B6008684FF4605310F0020FB5
:10152000C4F20203F7D01868002200F0F901196034
:1015300019469A608A684FF4605312F00C0FC4F297
:101540000203F7D1186840F48031196019460A681F
:101550004FF4605312F4003FC4F20203F7D0586F07
:1015600040F00101596719464A6F4FF4605312F079
:10157000020FC4F20203F7D045F20842C0F24072F3
:101580005A6018684FF4E04240F080711960C4F26C
:101590000002536813F4804FFBD04FF46051C4F243
:1015A000020108684FF4605310F0007FC4F2020398
:1015B000F7D04FF4705C4FF41441C4F2020CC3F640
:1015C000080140F205709960CCF800009A6842F07A
:1015D000020199601946886800F00C024FF46053CC
:1015E000082AC4F20203F6D1596C41F480405864D1
:1015F0005A6E42F480415966704700BFAFF30080D5
:1016000010B541F65C24C2F200042046FFF758FCF6
:101610004FF40052C4F20102A26242F61643054A98
:10162000C0F2020312206021E2622363BDE8104091
:10163000FEF74EBF202C0008AFF30080AFF3008010
:1016400010B4C16A0A68146824F01F031360136899
:1016500013F00103FBD10C7A826A49683D20A04057
:101660000860012053609360906010BC704700BF19
:1016700010B54FF40053C4F2010300211A68196039
:1016800012F0200F2DD041F65C24C2F20004E16A72
:101690000A68506828B323691BB32046FFF7D0FFC0
:1016A000206983684BB105220121227020469847AA
:1016B00094F800C0BCF1050F17D0002141F65C2260
:1016C000C2F200022161202383F31188606928B1EE
:1016D0004FF0FF3343625161FFF742F8002383F379
:1016E0001188BDE81040FEF793BE02212170E4E7A7
:1016F0004FF4605CC4F2020CDCF830206FEA522335
:101700006FEA4321CCF83010DCF850206FEA522306
:101710006FEA4321CCF8501000234268C4F2020360
:101720004FF4806C5A6081689960C268DA60016920
:10173000596142691A628169596202681A60016AD4
:10174000C4F2020C4FF40063CCF80410426ACCF8E7
:101750000820816ACCF80C10C26ACCF81420016B06
:10176000CCF82010426BCCF82420C169CCF80010D2
:10177000C4F20203C26B5A60016C9960426CDA6079
:10178000816C5961C26C1A62016D5962826B4FF4AF
:10179000406C1A60816DC4F2020C4FF48053CCF897
:1017A0000410C26DCCF80820016ECCF80C10426E0B
:1017B000CCF81420816ECCF82010C26ECCF8242016
:1017C000416DCCF80010C4F20203426F5A60816F81
:1017D0009960C26FDA60D0F880105961D0F8842027
:1017E0001A62D0F888105962026F4FF4A05C1A6038
:1017F000D0F89010C4F2020C4FF4C053CCF804108F
:10180000D0F89420CCF80820D0F89810CCF80C1020
:10181000D0F89C20CCF81420D0F8A010CCF82010E0
:10182000D0F8A420CCF82420D0F88C10CCF80010EC
:10183000D0F8AC20C4F202034FF4E05C5A60D0F858
:10184000B0109960D0F8B420DA60D0F8B8105961BF
:10185000D0F8BC201A62D0F8C0105962D0F8A82085
:10186000C4F2020C1A60D0F8C810CCF80410D0F8FA
:10187000CC20CCF80820D0F8D030CCF80C30D0F800
:10188000D410CCF81410D0F8D820CCF82020D0F800
:10189000DC30CCF82430D0F8C4104FF40053CCF82E
:1018A0000010D0F8E420C4F202035A60D0F8E81027
:1018B0009960D0F8EC20DA60D0F8F0105961D0F8D7
:1018C000F4201A62D0F8F8105962D0F8E0201A60BB
:1018D000704700BFAFF30080AFF30080AFF300802C
:1018E0002DE9F00F02F00307C2F38006C2F3C10531
:1018F000C2F34114C2F3C31200234FF00F094FF09B
:10190000010B924604E07600AD00A400BF00013355
:1019100011F0010F3ED0072B03F0070294BFD0F85F
:101920002080D0F824804FEA820C0AFA0CF209FADF
:101930000CFC95BF28EA0C0C28EA0C0C4CEA0202BD
:101940004CEA020294BF0262426242680BFA03FC54
:1019500022EA0C0848EA060242604FF003085A00E7
:10196000D0F808C008FA02F2D24302EA0C0C4CEAA2
:10197000050CC0F808C0D0F80CC002EA0C0C4CEA08
:10198000040CC0F80CC0D0F800C002EA0C0C4CEA01
:10199000070202604908B6D1BDE8F00F704700BFEA
:1019A00038B541F6902C41F69424C2F20004C2F2FC
:1019B000000C20464FF0FF35ACF80050FFF740FB1D
:1019C00009494FF4605016224623C4F2000001F189
:1019D0000C05C0F20102C0F20103E0612162656200
:1019E000A262E36238BD00BFB42B0008AFF30080F1
:1019F00070B541F6C425C2F200052B691869D96893
:101A000000EA0104E4B2E24314F0020F1A612ED19D
:101A100014F0040F23D114F0080F18D114F0100F94
:101A20000DD114F0010F06D06A6841F6C420916808
:101A3000C2F200008847BDE87040FEF7E9BC6B6861
:101A400041F6C4209A6AC2F200009047E9E769684B
:101A500041F6C4200B6AC2F200009847DEE76A68CC
:101A600041F6C4209169C2F200008847D3E76B6851
:101A700028461A699047CBE7AFF30080AFF30080A8
:101A800010B541F6C424C2F200042046FFF738FA2C
:101A90004FF40063C4F20003236110BDAFF3008074
:101AA0004FF48843C4F20003998988B240F0800261
:101AB0009A817047AFF30080AFF30080AFF30080EE
:101AC00070B541F6D820C2F20000456FAE892C886F
:101AD000A4B214F4807FB6B24DD1202383F31188D1
:101AE00014F0200F25D014F00F0F15D014F00801BA
:101AF00018BF802114F0010F18BF41F0200114F02D
:101B0000020F18BF41F0400114F0040F18BF41F458
:101B100080712D48FEF7FCFFA98841F6D820C2F25B
:101B20000000C9B2FFF764FA288884B214F0200FCD
:101B3000D9D1002383F3118816F0800F02D014F05E
:101B4000800F27D114F0400F11D0202383F3118888
:101B50001D481021FEF7DCFF002383F311884FF6A8
:101B60003F7106EA01004FF6BF73A8812B80BDE8E4
:101B70007040FEF74DBC202383F311884FF40071B1
:101B80000430FEF7C5FF002383F311884FF6FF638F
:101B90002B80A2E7202383F311880C48FFF7C0F8BD
:101BA0000028A4BF80B2A88003DB002383F3118840
:101BB000C8E705480821FEF7ABFF26F0C00C4CF043
:101BC0004002AA81F1E700BFDC1A0020081B0020B8
:101BD00010B541F6D824C2F2000441F6A1222046F5
:101BE0000021C0F60002FFF7DBF94FF48843C4F28E
:101BF0000003636710BD00BFAFF30080AFF3008048
:101C0000FFF776BCAFF30080AFF30080AFF3008046
:101C1000704700BFAFF30080AFF30080AFF30080E8
:101C200041F65033C2F2000310B51A7802B110BD6C
:101C30000120187000F00CF8BDE8104000F0A0B8CA
:101C4000FFF7EEBFAFF30080AFF30080AFF300808B
:101C500041F69010C2F2000010B5836903B110BDC7
:101C6000FFF70EF9BDE81040FEF782BCAFF300802D
:101C700008B9FEF7DDBEB0F1FF3F0CD04FF47A7C1F
:101C80000CFB00F044F6D351431EC1F26201A1FBEC
:101C9000031290090130FEF7BBBE00BFAFF3008016
:101CA00070B501250446018342830385C58385837E
:101CB00000F04EFB204600F08BFB2046BDE8704054
:101CC00000F096BBAFF30080AFF30080AFF300806D
:101CD00070B543880588C38300228583428313FB44
:101CE00005F502830185044600F032FB8DB1691EC3
:101CF0000E46204601F0010500F06AFB4EB11DB909
:101D0000204600F065FB013E204600F061FB013EED
:101D1000F6D12046BDE8704000F06ABBAFF300800A
:101D20002DE9F041BDF81850BDF81C7001832EB2AA
:101D300006FB03F642838383C5830785044600F0D0
:101D400007FB8EB1711E0D46204601F0010600F022
:101D50003FFB4DB11EB9204600F03AFB013D204645
:101D600000F036FB013DF6D12046BDE8F04100F021
:101D70003FBB00BFAFF30080AFF30080AFF3008044
:101D80002DE9F04F41F65434C2F2000400258DB025
:101D9000204625756575E58200F072F920462946D2
:101DA000FFF796FFB4F9006006F13F00AE42A8BF0E
:101DB0003046C0F38F104FF001086FF00F016FF045
:101DC0001F0230B103B25A011901524249421FFAAF
:101DD00080F8B4F902704FEA480CCB190CEB0800FC
:101DE00002EB060A03EBD37BCBF34F050AEBDA7663
:101DF0004FEA400B4FEA880AC6F34F060AEB080485
:101E000005EB0B090FFA89F906EB0C026700049049
:101E1000059541F654300FFA88F507EB080E039448
:101E200011B21F244A462B46C2F200003FB2CDF841
:101E300020E00097CDF808C00194FFF771FF059BE3
:101E400008990498009503EB010C0FFA8CF7099799
:101E5000321841F6543011B20FFA8AF3099A0194FC
:101E6000C2F20000FFF75CFF049FDDF814A00194AC
:101E700006EB0B034FEAC80141F654300FFA8BFB17
:101E8000BF0006914A4619B2C2F200002B460797DE
:101E9000CDF800B0FFF744FFDDF818C001943AB266
:101EA0000A920FFA8AFA06EB0C010A9F41F65430A7
:101EB00052462B46C2F2000009B20097FFF730FFEE
:101EC000DDF818E000950EEB080C06EB0C0E0FFA8F
:101ED0008EF741F65430394652465B46C2F2000056
:101EE0000194FFF71DFF069B0095C8EB030241F626
:101EF000543006923946099A01945B46C2F20000BA
:101F0000FFF70EFF0399069801940BB2039306EBBB
:101F10004002039F41F6543011B22B464A46C2F2AA
:101F200000000097FFF7FCFEDDF81CC0DDF808E0BC
:101F3000009506EB0C0141F654300FFA8EF34FEA90
:101F400008174A46C2F2000009B209970194FFF748
:101F5000E7FEF31941F654300A9F019419B2524634
:101F60002B46C2F200000097FFF7DAFEDDF824C02E
:101F700000950CEB0802B1180FB241F65430394607
:101F800052465B46C2F200000194FFF7C9FE049B73
:101F9000009541F6543039464A46C2F200001BB261
:101FA0000194FFF7BDFEDDF820E0069F009506EBEB
:101FB0004E000FFA80FC41F6543061464A463BB26F
:101FC000C2F20000CDF808C00194FFF7A9FEDDF8C9
:101FD00010E0CDF800B006EBCE0941F654300FFA10
:101FE00089F152462B46C2F200000194FFF798FE99
:101FF000059B069ADDF808C001949F180FFA87F92F
:1020000041F65430039F61464A462B46C2F2000017
:102010000097FFF785FEDDF818C0CDF800B006EB9D
:102020008C0E41F654300FFA8EF152462B46C2F216
:1020300000000194FFF774FE0799009701EB080078
:1020400006EB400C41F654300FFA8CF14A462B4611
:10205000C2F200000194FFF763FE4FF47A70FFF7BD
:1020600007FE41F65430C2F2000000210DB0BDE879
:10207000F04FFFF72DBE00BFAFF30080AFF300803D
:102080002DE9F04F457D42F65056C0F6000605EBAF
:1020900045084FF4605A42F6805206EBC805C4F278
:1020A000020AC0F600020446C56007CADAF838E042
:1020B00095B042F67053C0F600034EF0010C0DF1DE
:1020C0004409CAF838C089E8070093E807000EAF52
:1020D00087E80700484640F20261FEF701FF4FF033
:1020E000204A384640F20261002740F60A2BFEF7EC
:1020F000F7FEC4F2020741F2110E0221C0F20A0BF0
:1021000089461922CAF804B03846CAF800E04FF0F0
:10211000C04BFFF7E5FB1420A7F81A90FFF7A8FDC6
:102120004FF0000A1420A7F818900127C6F2020AFF
:10213000FFF79EFD05208BF80070FFF799FD4FF02B
:10214000030904226FF01F0C2221E2208BF800000B
:102150008AF8001005208AF800908AF800208BF891
:1021600000C08AF80070FFF783FD6FF01F018BF845
:10217000001005208AF80090FFF77AFD05208BF803
:102180000070FFF775FD36F838106A88B5F808C09A
:10219000AB886E8A6869079605F10808CDF820803B
:1021A0000FFA81F8CDF808800FFA82F8CDF80C808C
:1021B000DDF8088008F1FF38CDF8088001F1FF381C
:1021C000CDF81080DDF80C8008F1FF38CDF80C80D8
:1021D00002F1FF38CDF8148003EB0C08CDF818801D
:1021E000DDF80880C8F30728CDF80880DDF81080F6
:1021F0005FFA88F8CDF81080DDF80C80C8F3072866
:10220000CDF80C80DDF814805FFA8CF65FFA88F860
:102210000196CDF814806E89DDF804C0C0F307483C
:10222000CDF82480C0F30728CDF828805FFA80F825
:10223000300A0D90F0B2069E0C90C6F3072006906F
:10224000B020079E8BF800000C208AF80000802048
:102250008AF8000002988AF8000004988AF80000C2
:1022600003988AF8000005989C448AF8000000232F
:10227000F0208AF800308BF800003A208AF800300D
:102280008BF8000060208AF80000E6208BF8000040
:1022900009988AF800000A988AF80000B4208AF8A1
:1022A00000808BF80000DDF834808AF800800C98FC
:1022B0008AF80000DDF818805FFA8CFC8AF800804C
:1022C0008AF800C00198360A8AF80000B6208AF819
:1022D00000308AF800308AF800308BF800008AF865
:1022E0000060DDF820C0288ABCF80480C5B208EB85
:1022F000000C05EB0806DDF81C80CCF3072C5FFA18
:1023000088F0F6B28AF800008AF800C08AF8006007
:102310008AF8005035258AF800308AF800308BF8AA
:10232000005029258AF800308BF800502180A380C6
:102330005A2132233846628084F80690E171237274
:1023400015B0BDE8F08F00BFAFF30080AFF30080A1
:102350004FF0C0432B2210B41A70002290F91BC01A
:10236000C6F2020282F800C0847E1470B0F91A101E
:10237000B0F91EC001EB0C04611EC1F307241470F8
:10238000817E90F81EC001EB0C04611ECCB22A21A4
:102390001470197090F919C082F800C0047E14708E
:1023A000B0F91810B0F91CC001EB0C04611EC1F3A8
:1023B00007241470047E90F81CC004EB0C01481E26
:1023C000C1B211702C221A7010BC7047AFF300809C
:1023D000028D0023C6F2020302F4784002F4FC618D
:1023E000D200000AC908D2B2187019701A7070476A
:1023F000704700BFAFF30080AFF30080AFF3008001
:102400002DE9F04F87B09046BDF840200391002B96
:102410008146029204937FDD40F600031FFA88F0A4
:10242000C2F20003119E05904FF0000A0193039B36
:10243000B8F1000F0AEB030C0FFA8CFB3FDD31788B
:1024400008F1FF3C11F0010F0CF0010C50D10125F7
:1024500009F101000224A84507B22DDDBCF1000FEF
:102460000BD0317821424FD16400B4F5807F1CD06D
:1024700001350137A8453FB21EDD3278224229D10D
:102480006400B4F5807F30D03078013701352042C8
:102490003FB2E9D0019B39461868029B5A46640056
:1024A000FFF7FEFBB4F5807FE2D10135013701363D
:1024B0000124A8453FB2E0DCC1440FFA89F9049930
:1024C0000AF1010A514527DD059AC2EB090B0FFA03
:1024D0008BF9ACE7019B39461868029B5A466400A9
:1024E000FFF7DEFBB4F5807FCED101360124CBE7C8
:1024F000019C029B2068CDF800C049465A46FFF770
:10250000CFFBDDF800C0A2E7019A029B10683946B4
:102510005A46FFF7C5FBA7E707B0BDE8F08F00BF3D
:10252000F0B540F6E87540F68434C2F20005C2F218
:102530000004B5F900E0B4F900C083B020221346CE
:102540000E460746614670464FF0000ECDF800E09B
:102550000196FFF755FF4FF47A7C0CFB07F744F622
:10256000D352C1F26202013FA2FB07218809013068
:10257000FEF74EFA41F2EC03C2F20003B4F9001088
:102580001C88B5F900000196202213460094FFF73D
:1025900037FF03B0F0BD00BFAFF30080AFF30080A2
:1025A00010B540F608614FF4FA70C2F20001FFF76F
:1025B000B7FF41F2F0614FF4FA70C2F20001BDE8DA
:1025C0001040FFF7ADBF00BFAFF30080AFF3008056
:1025D00010B541F270214FF47A70C2F20001FFF79A
:1025E0009FFF40F6041140F2DC50C2F20001BDE84A
:1025F0001040FFF795BF00BFAFF30080AFF300803E
:1026000010B541F270714FF4FA70C2F20001FFF799
:1026100087FF40F6EC714FF4FA70C2F20001BDE89A
:102620001040FFF77DBF00BFAFF30080AFF3008025
:1026300010B541F270214FF4FA70C2F20001FFF7B9
:102640006FFF41F270614FF4FA70C2F20001BDE811
:102650001040FFF765BF00BFAFF30080AFF300800D
:1026600041F2F072C2F200021188C80880EA9103B8
:1026700083EA010080EA511C0CF001004B0843EA98
:10268000C0301080704700BFAFF30080AFF3008010
:102690002DE9F04F40F6000541F2EC0489B0C2F29A
:1026A0000005C2F20004FEF7EBFBFDF761FFFFF748
:1026B000C7FA0A20FEF7ACF921882868FFF708FB63
:1026C0000A20FEF7A5F921882868FFF701FB0A20F8
:1026D000FEF79EF928682188FFF7FAFA41F2702187
:1026E00040F2DC50C2F20001FFF71AFF40F604216D
:1026F0004FF4FA70C2F20001FFF712FF40F6E870E3
:1027000040F6843140F6887249F60313C2F20000A5
:10271000C2F20001C2F20002C2F6147302900191EB
:1027200006920793FFF79CFF10F0010F40F05981CC
:10273000FFF796FF10F0010F40F05F81FFF790FF69
:1027400010F0080F40F0658140F604214FF4FA7054
:10275000C2F20001FFF7E4FE41F27021C2F2000173
:102760004FF4FA70FFF7DCFEFFF77AFF079EA6FB37
:102770000075AC094FF4AE7B0BFB14001E3881B220
:102780000591FFF76DFF48F2B51AC1F64E3AAAFB64
:1027900000E2059F53094FF4967808FB13063DB2FB
:1027A0001E3E002DB3B2C0F2B481B5F5907FC2BF1A
:1027B0004FF49079CDF814904D4640F3AD811BB2A3
:1027C000002B0493C0F2AE81D02B40F3AD81D02416
:1027D0000494029A019FB2F90080B7F900C0DDF8B5
:1027E00010E0C8EB0909CCEB0404B9F1000FB8BF45
:1027F000C9F10009002CB8BF64424545D4BF02228C
:102800000422D4BF4FF0FF3A4FF0010AE645D4BF8F
:102810006FF001010221D4BF4FF0FF3B4FF0010BDD
:10282000A145C8BF4FEA690703DC04EBD4767010FA
:102830004742B4EB490F01EB0206D4BF4FF000084A
:102840004FF00808B9EB440F06EB080CD4BF4FF06B
:10285000000E4FF0100E0CEB0E0306985A1C50F8A9
:10286000238050F82210C9F10006039147E0BC42D2
:10287000C8BF5A44BE46C4BFCE4492B28D425CD05B
:10288000B64500F300817445C8BF5A447046C4BFC2
:10289000484492B28D4200F00581B04200F3DE80E0
:1028A0008442C8BF5A440746C4BF4F4492B28D42C7
:1028B00000F0E280B74200F3BB80BC42C8BF5A447C
:1028C0003846C4BF484492B28D4200F0C080864270
:1028D000B8BF5344DDF808C00399CDF80C80BABFE7
:1028E0009BB2C4EB000707468442C8BF5A44ACF809
:1028F0000030019BC4BF92B24F441A808846FA2030
:102900004146FFF70DFE0299DDF804C00B88BCF8C4
:10291000002019B28D4200F0CD80B742A7DD0AEB4E
:102920000300BC4283B2C8BF5A44C4EB070E19B2BD
:10293000C4BFCE4492B28D42A2D1049F10B287424E
:102940009ED1059B029CDDF804E02380AEF80020B8
:10295000002B40F0C080019D2B8840F6840840F693
:102960000434C2F20008C2F20004002B00F0C88058
:10297000D02B40F0DB8040F6883841F27044C2F240
:102980000008C2F20004214640F24D10FFF7C8FDD6
:10299000414640F24D10FFF7C3FD214640F24D1075
:1029A000FFF7BEFD414640F24D10FFF7B9FD21464D
:1029B00040F24D10FFF7B4FD414640F24D10FFF7D5
:1029C000AFFD214640F24D10FFF7AAFD40F24D1039
:1029D0004146FFF7A5FDFFF743FE10F0010F3FF45E
:1029E000A7AEFFF725FEFFF723FEFFF721FEFFF757
:1029F00037FE10F0010F3FF4A1AEFFF701FEFFF725
:102A0000FFFDFFF7FDFDFFF72BFE10F0080F3FF471
:102A10009BAEFFF7DDFDFFF7C3FDFFF7C1FDFFF73D
:102A2000BFFDFFF7BDFDFFF7BBFDFFF7B9FD8BE66F
:102A300003EB0A01BC428BB2C8BF5A44C4EB070087
:102A400019B2C4BF484492B28D427FF440AF049F94
:102A50000FFA82FE77457FF43AAF72E7534484421F
:102A60009BB2C8BF5A44C4EB000719B2C4BF4F445D
:102A700092B28D427FF41EAFDDF810C010B28445D3
:102A80007FF418AF5DE703EB0A077445BBB2C8BF1C
:102A90005A44C4EB0E0019B2C4BF484492B28D42EE
:102AA0007FF4FBAEDDF810E00FFA82FCE6457FF420
:102AB000F4AE46E7DDF810E00FFA82FCE6457FF45D
:102AC0002CAF059B029CDDF804E02380AEF80020CB
:102AD000002B3FF440AF019D0FFA83FB41F2F03A27
:102AE00040F688442B88BBF5907FC2F2000AC2F200
:102AF000000408BFD04618BF0024002B7FF438AF75
:102B000041F2701840F68414C2F20008C2F20004C8
:102B100039E7002705973D461BB2002BA9460493D1
:102B2000BFF652AE00230493049C52E6002C3FF4FF
:102B3000F9AD28E7AFF30080AFF30080AFF300807A
:102B400069646C65000000000000000000000000E7
:102B50006D61696E00168211040448080C10141887
:102B6000001C1D1E1F2000000000000000000000CF
:102B7000410F0008210F0008810F0008610F0008B5
:102B8000710F0008510F0008310F0008110F0008E5
:102B9000106002400860024000000B002860024004
:102BA0000860024006010C004060024008600240DC
:102BB00010020D00586002400860024016030E002B
:102BC000706002400C60024000040F008860024008
:102BD0000C60024006051000A06002400C6002403C
:102BE00010061100B86002400C60024016072F006A
:102BF0001064024008640240000838002864024063
:102C0000086402400609390040640240086402403A
:102C1000100A3A005864024008640240160B3B0058
:102C2000706402400C640240000C3C008864024066
:102C30000C640240060D4400A06402400C64024093
:102C4000100E4500B86402400C640240160F4600A6
:102C500000AAA02A00000000FFABFFFF54000140C3
:102C6000FFFF00000000565500AA0A00802008005F
:102C700040020000FFFFFFFF15455155FFFF000018
:102C8000000000044000000001802002000000005D
:102C9000FFFFFFFF54154554FFFF000000000060D8
:102CA000000606000001005500000000FFFFFFFFC6
:102CB00055505500FF0F000000000000000000000C
:102CC0004000000000000000FFFFFFFF00000000C8
:102CD000FFFF0000000000000000000000000000F6
:102CE00000000000FFFFFFFF00000000FFFF0000EA
:102CF00000000000000000000000000000000000D4
:102D0000FFFFFFFF00000000FFFF000000000000C9
:102D1000000000000000000000000000FFFFFFFFB7
:102D200000000000FFFF00000000000000000000A5
:102D30000000000000000000FFFFFFFF0000000097
:102D4000FFFF000000000000000000000000000085
:102D50004001F000000000004400B8010000000045
:102D600012000901D8FF0000000000000000000070
:102D7000001002408007000000000000000000007A
:0C2D8000000C0240B3C80000000000007E
:102D9000541B00200000000000000000000700009D
:102DA000E038000010E00300E00F0400800308009A
:102DB000C00010006000F0182000B014200890122D
:102DC0002010881120200410202002104020021022
:102DD000402042244020422440104FE44010002074
:102DE0004010002480880020008904160051F80F4C
:102DF0000052F8030032FC0000247F0000EC310098
:102E0000003800000000000000000000000000008A
:102E100000000000C000000040010000400200006F
:102E2000400400004118000031200000094000006B
:102E300025400000254000002340000083410000A1
:102E400065A00F0005003000E901400031C080009E
:102E50000F200001011000C27E0800A2FE090094AC
:102E60000C0F008C000C0040001C00200038031EDA
:102E700000FE0101008FE000000F100000FE1F00A7
:102E80000000000000000000000000000000000042
:102E90000000000000000000000000000000000032
:102EA00000101000002828000048240000444400BE
:102EB0000084420000828300003AB800004285008E
:102EC00000929100004EE200004282000042820027
:102ED000004442000088210000701C0000400400F3
:102EE000002008000010100000082000000BA001C6
:102EF000800C61024018310440101104C011117F90
:102F00006090138CE0FFFE7F0000000000000000D6
:102F100000000000002A3200002A4A0080EB4B002B
:102F2000003EFC00000A90000026A4000023C4001C
:102F30000023C40000018000801FF8018001800090
:102F400000276200001D5C000003C000001E780026
:102F500000024000000180008000000180000001AC
:102F600080000001B000000DE80180130803C010CC
:102F700010000008E0781E070047E2000020020071
:102F80000010010000900000006000000000000040
:102F9000000000000000000000000000200000040D
:102FA0004010100280282801004924000644446093
:102FB0001884421860828306000280000022880084
:102FC0000F2288780022880000028000003AB900B1
:102FD000000440000008200000701C0200400405AE
:102FE000002088040010500200082001000BA001FE
:102FF000800C61024018310440101104C011110707
:103000006090130CE0FFFE0F0000000000000000C5
:1030100000000000000000000000000000FF0000B1
:1030200080B0010040073E0060C0200058B810008A
:10303000408810005E800800F2800800C60014007E
:103040008C0324001800420E305081094000000912
:10305000800180040002800C0004400A0008003255
:103060000010004000102040001040400010804040
:1030700000208087002080880040809000808F9012
:10308000000090A0000090C00000900000009000A0
:1030900000006000C000000040010000400200008D
:1030A00043040000371800000F2000000740000014
:1030B00027400000274000002D4000003140000064
:1030C000C1A00F00030030000D00400038C0800098
:1030D0007020000140100002400800028009000436
:1030E000000F000C000C0010001C002000380346EC
:1030F00000FE018D008FE070000F100000FE1F0029
:1031000000000000000000000000000000000000BF
:1031100000000000680000000000000000000C003B
:103120000000120000001100008008000080040070
:1031300000F03C0000084000000480000002000194
:10314000000100028010100280282802C0482406D6
:103150003045441908844220F883833F00028000F0
:103160000002800000028000002288000022880007
:103170000022C8000004C100000CA00000749C00E4
:1031800000D49700005494000054B400005454003C
:10319000005054000000000000000000000000008B
:1031A0000000000000700000008C01000003060019
:1031B00080000800800010004000203020002028FF
:1031C000100040264880C011C4002110A200011048
:1031D0009200022049000248250002484300E148CD
:1031E000800091C380C00280807901408089C02026
:1031F000C073701FC0133C00C0F41F00001C0F0000
:10320000001807000000000000000000000000009F
:103210000000000000000000000000030000800229
:1032200000004002000020C2000018EC000004F082
:10323000000002E0000002E4000002E4000002B42A
:103240000000028C00F00583000C00C0000200B0FA
:103250000001031C8000040E400008024000100220
:10326000200090013000F000080030000400380019
:1032700062C01C00B1807F000E07F1000008F00062
:1032800000F87F00000000000000000000000000C7
:10329000000000000000000000E000000020FF012E
:1032A00000201E020020A4070020446C0020841887
:1032B0000020040800200008007C0008808300042F
:1032C0004000000420000003100080001000800077
:1032D00008008000040080000400C30004004400D3
:1032E00004004C000C0044000C00240004002600E4
:1032F00026031B00F2830B00D9C30F00C90F0E0079
:103300000678080000C00F00000000000000000068
:103310000000000000000000008C6100005AB200B4
:10332000005292000052920000610A010061060101
:103330000001000100010001000100010001000185
:103340000002800000129000002928010049240199
:103350000045440100854201008383010003800190
:103360006003800D8003800300238801002388010F
:10337000002288000006C100000AA00000729C0024
:1033800000C2870000244800002448000034580090
:1033900000183000000000000000000000000000E5
:1033A00000000000C01F0000000800000005000031
:1033B0000002000000051F0080000800C01F04007C
:1033C00000001F000000000000000001000080025B
:1033D000000041020080220200403E060038140A2C
:1033E0000026181400110018001100188010003871
:1033F0004010002C40A0012B40208E68402010542B
:103400004040405B8080FF4C003FF06400E09F3F05
:1034100000000000000000000000000000000000AC
:103420000000000000803F0000E0403E0090384176
:10343000002089380060720400901C040008000419
:10344000800D000486070004DE0C0004F218000260
:10345000E2310001866080000440600004801000BA
:103460000400080015710800160904001481040006
:10347000044002002C300100188F0000F8430000C7
:103480007C2200003C2200003C120000180E0000CC
:10349000000000000000000000000000000000002C
:1034A00000000000200000E060000090A000008804
:1034B0002001004420020022300C00110810C00836
:1034C00024303808242006082440011002C00010CF
:1034D000C203001002000010040000107800002059
:1034E00080070820800130C0C000C0816018F89FAC
:1034F00030FC87BF183F00F8CC07003038030000CD
:1035000000000000000000000000000000000000BB
:10351000000000000000000070130020840A00205A
:10352000080D0020F0140020F0110020880E00206B
:1035300004080020F0120020F01000206C10002081
:10354000F01000206C100020F0150020880D0020E5
:10355000F0150020880D0020F4170020080F00202F
:10356000080C002070150020F4170020080F002020
:10357000080C0020701500209000000000000000E2
:10358000000000000000000000000000002000001B
:103590000050000020900000501001009008020030
:1035A0001009040010060800100008002000100098
:1035B000208010002060100020100800E081F90336
:1035C00020601804E0C50F08C0E00008009F110843
:1035D00000082E08000B2008800C21084018310438
:1035E00040101104C011917F6090F380E0FFFE7FD6
:1035F00000000000000000000000000000C0030008
:10360000803FFC01400BD00240266402402244026D
:103610004022440240018002401FF8024001800223
:1036200040224202801E7C018004200180381C015F
:103630008000000100018000000DB0000083C10087
:10364000004182008040020180400201804002016E
:1036500080400201804002018000000180C003011F
:1036600000418200002184000011880000099000C0
:1036700000066000000000000000000018C6000006
:1036800000C00300003E7C0000081000002664001B
:10369000002244000022440000018000001FF800C6
:1036A0000001800000224200001E7C000006600035
:1036B000803FFC01C007E00240024002400240029D
:1036C00040018002400000028000000180000001F3
:1036D0008000000180000001000180000006600001
:1036E00000781E000040020000400200004002007E
:1036F0000040020000800100000000000000000007
:1037000000262A0000292A0000E9EB00003D3C00C9
:103710000009300000254400002344000023440039
:1037200000018000801FF8018000800000276200F7
:10373000001D5C000003C000001E78000002400075
:103740000001800080000001800000018000000175
:10375000B000000DE80180130803C010100000083D
:10376000E0781E070047E2000040040000800800E7
:10377000000009000000060000000000000000003A
:1037800000000000000000000000E00000001C0736
:1037900000C007080020F0070010C0010008000367
:1037A000180F0006280D00044809100488110804A9
:1037B00008200404084004040840040224420402CF
:1037C0002442040227F2080204000802240008022E
:1037D0000400110168209100F01F8A00C01F4A00F8
:1037E000003F4C0000FE2400008C370000001C004D
:1037F00000000000000000000000000000000000C9
:103800000000000000000000000000000010100098
:10381000002828000048240000444400008442009E
:1038200000828300000280000022880000228800BD
:103830000022880000028000003AB9000004400025
:103840000008200000701C00004004000020080058
:103850000010100000082000000BA001800C610285
:103860004018310440101104C011117F6090138C76
:10387000E0FFFE7F000000000000000000000000EC
:1038800000000000000000000000000000FC01003B
:103890007C020700821C09001C910400204E0600D7
:1038A00020380900200010002000B0012000E06155
:1038B0002000307B4000184F80008C4700010661DB
:1038C00000060220000801200010002000108EA831
:1038D00000209068002081280040022000800C34E5
:1038E0000000F1180000C21F0000443E0000443CEC
:1038F0000000483C000070180000000000000000BC
:103900000000070080FF040040780400E025040068
:1039100036220400182104001020040010000400C6
:1039200010003E002000C10120000002C000000481
:103930000001000800010008000100100001002043
:1039400000C30020002200200032002000220030AE
:10395000002400300064002000D8C06400D0C14FB3
:1039600000F0C39B0070F09300101E6000F0030095
:103970000000000000000000000000000000000047
:10398000000000030000800200004002000020024E
:10399000000018820000048C00000290000002A4C5
:1039A000000002A4000002C4000082C100F005A6CD
:1039B000000C00A0000280970001038C800004F03E
:1039C000430008804500107E2900907F3100F030D0
:1039D000020030000400380078C01C0080807F00A6
:1039E0000007F1000008F00000F87F000000000070
:1039F00000000000000000000000000000000000C7
:103A00000000000000C000000020010000180200BB
:103A1000002004000040040000783C000004400046
:103A200000028000000100018000000280101002EE
:103A300080282802C04824063045441908844220C2
:103A4000F883833F000280000002800000028000B3
:103A5000002288000022880000268800000641001D
:103A6000000A600000725C0000D25700005254004F
:103A7000005A540000545400005414000000000088
:103A800000000000000000000000FF0000800D01A9
:103A9000007CE0020004030600081D1A0008110261
:103AA0000010017A0010014F002800630024C0318B
:103AB0007042001890810A0C9000000220018001E1
:103AC00030014000500220004C00100002000800AD
:103AD000020408000202080002010800E1010400DB
:103AE000110104000901020009F1010005090000AB
:103AF00003090000000900000009000000060000A2
:103B000000000000000000000000000007000004AA
:103B1000090000061900000522008004440040044A
:103B20008800300C10030810101C0C2410600424B2
:103B300008800224080003400800C0430800004039
:103B4000080000200400001E04108001030C800106
:103B500081030003F90F1806FDF93F0C1F00FC1844
:103B60000C00E0330000C01C00000000000000005A
:103B70000000000000000000000000000000000045
:103B800000800100004002000040020000400200EE
:103B9000004002000040020000781E0000042000E7
:103BA000000240000001800080000001801010022F
:103BB00080282802404824044044440440844204AD
:103BC00040828304400280046002800CC0028006B0
:103BD00020238809A023880BE022880E800441025C
:103BE000000FE001007C7C0000C007000000000026
:103BF00000000000000000000000000000000000C5
:103C000000000000000000000030000000D00000B4
:103C10000010010000100200E0100C00203710001E
:103C200020182000400041004000420040005000A9
:103C3000400848008010410080003C00003922000C
:103C400000024400007C7C0000404400002046004C
:103C50000010400000083000000BA401800C63023B
:103C6000401801044010013CC01105476090033C1E
:103C7000E0FFFE0F00000000000000000000000058
:103C80000000000000000000000000000000000034
:103C90000000000000000000000000000000000024
:103CA00000000000003F000000103C00000C10006D
:103CB00000048801003F7C010080600100C02102F7
:103CC00000783F060026120A00210C14801000180C
:103CD00080100018801000384010002A40A00329EE
:103CE00040208C68402010544040405B8080FF4C56
:103CF000003FF06400E09F3F000000000000000073
:103D000000000000000000000000000000000000B3
:103D100000060000001A000000620000008200009F
:103D2000000203003C023400C4035800080058009D
:103D3000082058001010D8002008180120C81802C8
:103D4000E021180420003408E0052408C060380889
:103D5000001F100800082008000B2008800C210C10
:103D60004018310440101102C011917F6090F3801F
:103D7000E0FFFE7F000000000000000000000000E7
:103D8000E1AC0000000000000000000000000000A6
:103D900000000E00008031000060C0000010000133
:103DA000000800010C04000214040004640200086E
:103DB000880301120884002308800045044000495C
:103DC00012400092124000A4128700C2C381000179
:103DD0000140030102809E0104039101F80ECE030D
:103DE000003CC80300F82F0300F0380000E0180082
:103DF00000000000000000000000000000000000C3
:043E000000000000BE
:04000005080001B13D
:00000001FF
